{
  "_format": "hh-sol-artifact-1",
  "contractName": "SingleSwapToken",
  "sourceName": "contracts/SwapToken.sol",
  "abi": [
    {
      "inputs": [],
      "name": "LINK",
      "outputs": [
        {
          "internalType": "address",
          "name": "",
          "type": "address"
        }
      ],
      "stateMutability": "view",
      "type": "function"
    },
    {
      "inputs": [],
      "name": "USDC",
      "outputs": [
        {
          "internalType": "address",
          "name": "",
          "type": "address"
        }
      ],
      "stateMutability": "view",
      "type": "function"
    },
    {
      "inputs": [],
      "name": "WETH",
      "outputs": [
        {
          "internalType": "address",
          "name": "",
          "type": "address"
        }
      ],
      "stateMutability": "view",
      "type": "function"
    },
    {
      "inputs": [
        {
          "internalType": "uint256",
          "name": "amountIn",
          "type": "uint256"
        }
      ],
      "name": "swapExactInputSingle",
      "outputs": [
        {
          "internalType": "uint256",
          "name": "amountOut",
          "type": "uint256"
        }
      ],
      "stateMutability": "nonpayable",
      "type": "function"
    },
    {
      "inputs": [],
      "name": "swapRouter",
      "outputs": [
        {
          "internalType": "contract ISwapRouter",
          "name": "",
          "type": "address"
        }
      ],
      "stateMutability": "view",
      "type": "function"
    }
  ],
  "bytecode": "0x608060405234801561001057600080fd5b50610ae4806100206000396000f3fe608060405234801561001057600080fd5b50600436106100575760003560e01c80631b6b6d231461005c57806373bd43ad1461007a57806389a30271146100aa578063ad5c4648146100c8578063c31c9c07146100e6575b600080fd5b610064610104565b6040516100719190610606565b60405180910390f35b610094600480360381019061008f919061065c565b61011c565b6040516100a19190610698565b60405180910390f35b6100b26102d0565b6040516100bf9190610606565b60405180910390f35b6100d06102e8565b6040516100dd9190610606565b60405180910390f35b6100ee610300565b6040516100fb9190610712565b60405180910390f35b73326c977e6efc84e512bb9c30f76e30c160ed06fb81565b600061013e73b4fbf271143f4fbf7b91a5ded31805e42b2208d6333085610318565b61017173b4fbf271143f4fbf7b91a5ded31805e42b2208d673e592427a0aece92de3edee1f18e0157c0586156484610470565b600060405180610100016040528073b4fbf271143f4fbf7b91a5ded31805e42b2208d673ffffffffffffffffffffffffffffffffffffffff1681526020017307865c6e87b9f70255377e024ace6630c1eaa37f73ffffffffffffffffffffffffffffffffffffffff168152602001610bb862ffffff1681526020013373ffffffffffffffffffffffffffffffffffffffff16815260200142815260200184815260200160008152602001600073ffffffffffffffffffffffffffffffffffffffff16815250905073e592427a0aece92de3edee1f18e0157c0586156473ffffffffffffffffffffffffffffffffffffffff1663414bf389826040518263ffffffff1660e01b8152600401610285919061081a565b6020604051808303816000875af11580156102a4573d6000803e3d6000fd5b505050506040513d601f19601f820116820180604052508101906102c8919061084b565b915050919050565b7307865c6e87b9f70255377e024ace6630c1eaa37f81565b73b4fbf271143f4fbf7b91a5ded31805e42b2208d681565b73e592427a0aece92de3edee1f18e0157c0586156481565b6000808573ffffffffffffffffffffffffffffffffffffffff166323b872dd60e01b86868660405160240161034f93929190610878565b604051602081830303815290604052907bffffffffffffffffffffffffffffffffffffffffffffffffffffffff19166020820180517bffffffffffffffffffffffffffffffffffffffffffffffffffffffff83818316178352505050506040516103b99190610920565b6000604051808303816000865af19150503d80600081146103f6576040519150601f19603f3d011682016040523d82523d6000602084013e6103fb565b606091505b50915091508180156104295750600081511480610428575080806020019051810190610427919061096f565b5b5b610468576040517f08c379a000000000000000000000000000000000000000000000000000000000815260040161045f906109f9565b60405180910390fd5b505050505050565b6000808473ffffffffffffffffffffffffffffffffffffffff1663095ea7b360e01b85856040516024016104a5929190610a19565b604051602081830303815290604052907bffffffffffffffffffffffffffffffffffffffffffffffffffffffff19166020820180517bffffffffffffffffffffffffffffffffffffffffffffffffffffffff838183161783525050505060405161050f9190610920565b6000604051808303816000865af19150503d806000811461054c576040519150601f19603f3d011682016040523d82523d6000602084013e610551565b606091505b509150915081801561057f575060008151148061057e57508080602001905181019061057d919061096f565b5b5b6105be576040517f08c379a00000000000000000000000000000000000000000000000000000000081526004016105b590610a8e565b60405180910390fd5b5050505050565b600073ffffffffffffffffffffffffffffffffffffffff82169050919050565b60006105f0826105c5565b9050919050565b610600816105e5565b82525050565b600060208201905061061b60008301846105f7565b92915050565b600080fd5b6000819050919050565b61063981610626565b811461064457600080fd5b50565b60008135905061065681610630565b92915050565b60006020828403121561067257610671610621565b5b600061068084828501610647565b91505092915050565b61069281610626565b82525050565b60006020820190506106ad6000830184610689565b92915050565b6000819050919050565b60006106d86106d36106ce846105c5565b6106b3565b6105c5565b9050919050565b60006106ea826106bd565b9050919050565b60006106fc826106df565b9050919050565b61070c816106f1565b82525050565b60006020820190506107276000830184610703565b92915050565b610736816105e5565b82525050565b600062ffffff82169050919050565b6107548161073c565b82525050565b61076381610626565b82525050565b610772816105c5565b82525050565b6101008201600082015161078f600085018261072d565b5060208201516107a2602085018261072d565b5060408201516107b5604085018261074b565b5060608201516107c8606085018261072d565b5060808201516107db608085018261075a565b5060a08201516107ee60a085018261075a565b5060c082015161080160c085018261075a565b5060e082015161081460e0850182610769565b50505050565b6000610100820190506108306000830184610778565b92915050565b60008151905061084581610630565b92915050565b60006020828403121561086157610860610621565b5b600061086f84828501610836565b91505092915050565b600060608201905061088d60008301866105f7565b61089a60208301856105f7565b6108a76040830184610689565b949350505050565b600081519050919050565b600081905092915050565b60005b838110156108e35780820151818401526020810190506108c8565b60008484015250505050565b60006108fa826108af565b61090481856108ba565b93506109148185602086016108c5565b80840191505092915050565b600061092c82846108ef565b915081905092915050565b60008115159050919050565b61094c81610937565b811461095757600080fd5b50565b60008151905061096981610943565b92915050565b60006020828403121561098557610984610621565b5b60006109938482850161095a565b91505092915050565b600082825260208201905092915050565b7f5354460000000000000000000000000000000000000000000000000000000000600082015250565b60006109e360038361099c565b91506109ee826109ad565b602082019050919050565b60006020820190508181036000830152610a12816109d6565b9050919050565b6000604082019050610a2e60008301856105f7565b610a3b6020830184610689565b9392505050565b7f5341000000000000000000000000000000000000000000000000000000000000600082015250565b6000610a7860028361099c565b9150610a8382610a42565b602082019050919050565b60006020820190508181036000830152610aa781610a6b565b905091905056fea2646970667358221220b6bd9ece93eba241756f21c293c7890decc4fe659fbfb7bd3b7cf1b9b69dcf7564736f6c63430008110033",
  "linkReferences": {},
  "deployedLinkReferences": {}
}